:100000000C945D000C9485000C9485000C94850084
:100010000C9485000C9485000C9485000C9485004C
:100020000C9485000C9485000C9485000C9485003C
:100030000C9485000C9485000C9485000C9485002C
:100040000C9493020C9485000C9461020C943B0276
:100050000C9485000C9485000C9485000C9485000C
:100060000C9485000C9485000000000024002700FB
:100070002A0000000000250028002B0004040404CE
:100080000404040402020202020203030303030342
:10009000010204081020408001020408102001021F
:1000A00004081020000000080002010000030407FB
:1000B0000000000000000000A10311241FBECFEFCC
:1000C000D8E0DEBFCDBF11E0A0E0B1E0ECEAF7E0A0
:1000D00002C005900D92A632B107D9F721E0A6E241
:1000E000B1E001C01D92AC3CB207E1F710E0CDE5F4
:1000F000D0E004C02197FE010E94CE03CC35D10789
:10010000C9F70E94DD020C94D4030C940000EBEAC2
:10011000F0E02491E7E9F0E09491E3E8F0E0E49185
:10012000EE23C9F0222339F0233001F1A8F4213065
:1001300019F1223029F1F0E0EE0FFF1FEE58FF4FCA
:10014000A591B4912FB7F894EC91811126C09095A8
:100150009E239C932FBF08952730A9F02830C9F023
:10016000243049F7209180002F7D03C0209180002A
:100170002F7720938000DFCF24B52F7724BDDBCFEE
:1001800024B52F7DFBCF2091B0002F772093B000B6
:10019000D2CF2091B0002F7DF9CF9E2BDACFAF9236
:1001A000BF92CF92DF92EF92FF920F931F93CF9364
:1001B000DF936C017B018B01040F151FEB015E01C6
:1001C000AE18BF08C017D10759F06991D601ED915B
:1001D000FC910190F081E02DC6010995892B79F7FA
:1001E000C501DF91CF911F910F91FF90EF90DF90AC
:1001F000CF90BF90AF900895FC01538D448D252F73
:1002000030E0842F90E0821B930B541710F0CF96B0
:10021000089501970895FC01918D828D981761F0E2
:10022000A28DAE0FBF2FB11D5D968C91928D9F5FF9
:100230009F73928F90E008958FEF9FEF0895FC01D8
:10024000918D828D981731F0828DE80FF11D858D8B
:1002500090E008958FEF9FEF0895FC01918D228D1E
:10026000892F90E0805C9F4F821B91098F739927A3
:1002700008958FE291E00E942D0121E0892B09F47D
:1002800020E0822F089580E090E0892B29F00E94E1
:10029000390181110C9400000895FC01A48DA80F70
:1002A000B92FB11DA35ABF4F2C91848D90E00196B8
:1002B0008F739927848FA689B7892C93A089B189D8
:1002C0008C91837080648C93938D848D981306C079
:1002D0000288F389E02D80818F7D80830895EF92DD
:1002E000FF920F931F93CF93DF93EC0181E0888FF0
:1002F0009B8D8C8D98131AC0E889F989808185FFC0
:1003000015C09FB7F894EE89FF896083E889F98961
:1003100080818370806480839FBF81E090E0DF9163
:10032000CF911F910F91FF90EF900895F62E0B8DB6
:1003300010E00F5F1F4F0F731127E02E8C8D8E1171
:100340000CC00FB607FCFACFE889F989808185FFD8
:10035000F5CFCE010E944D01F1CFEB8DEC0FFD2FBB
:10036000F11DE35AFF4FF0829FB7F8940B8FEA8993
:10037000FB8980818062CFCFCF93DF93EC01888DA2
:100380008823B9F0AA89BB89E889F9898C9185FD10
:1003900003C0808186FD0DC00FB607FCF7CF8C919E
:1003A00085FFF2CF808185FFEDCFCE010E944D0108
:1003B000E9CFDF91CF9108953FB7F89480912B0159
:1003C00090912C01A0912D01B0912E0126B5A89BF2
:1003D00005C02F3F19F00196A11DB11D3FBFBA2FD7
:1003E000A92F982F8827BC01CD01620F711D811D97
:1003F000911D42E0660F771F881F991F4A95D1F71C
:1004000008958F929F92AF92BF92CF92DF92EF9218
:10041000FF924B015C010E94DC016B017C010E9498
:10042000DC016C197D098E099F09683E73408105C6
:100430009105A8F321E0821A9108A108B10888EE7D
:10044000C80E83E0D81EE11CF11C81149104A104A4
:10045000B10429F7FF90EF90DF90CF90BF90AF905D
:100460009F908F90089542E050E062E171E08FE24A
:1004700091E00C94CF001F920F920FB60F921124AF
:100480002F933F934F935F936F937F938F939F939C
:10049000AF93BF93EF93FF938FE291E00E944D01E2
:1004A000FF91EF91BF91AF919F918F917F916F914C
:1004B0005F914F913F912F910F900FBE0F901F9022
:1004C00018951F920F920FB60F9211242F938F93AE
:1004D0009F93EF93FF93E0913F01F0914001808162
:1004E000E0914501F091460182FD1BC09081809111
:1004F00048018F5F8F7320914901821741F0E0918D
:100500004801F0E0E15DFE4F958F80934801FF9137
:10051000EF919F918F912F910F900FBE0F901F9091
:1005200018958081F4CF1F920F920FB60F9211246D
:100530002F933F938F939F93AF93BF938091270106
:1005400090912801A0912901B0912A0130912601B2
:1005500023E0230F2D3758F50196A11DB11D2093DF
:1005600026018093270190932801A0932901B0933D
:100570002A0180912B0190912C01A0912D01B09125
:100580002E010196A11DB11D80932B0190932C018A
:10059000A0932D01B0932E01BF91AF919F918F91A8
:1005A0003F912F910F900FBE0F901F90189526E846
:1005B000230F0296A11DB11DD2CF789484B582601D
:1005C00084BD84B5816084BD85B5826085BD85B5F7
:1005D000816085BD80916E00816080936E00109275
:1005E00081008091810082608093810080918100F0
:1005F0008160809381008091800081608093800081
:100600008091B10084608093B1008091B0008160DE
:100610008093B00080917A00846080937A0080910A
:100620007A00826080937A0080917A008160809362
:100630007A0080917A00806880937A001092C100DD
:10064000E0913F01F091400182E08083E0913B0125
:10065000F0913C011082E0913D01F0913E018FEC60
:10066000808310924701E0914301F091440186E0BC
:100670008083E0914101F09142018081806180831B
:10068000E0914101F0914201808188608083E09196
:100690004101F0914201808180688083E0914101B5
:1006A000F091420180818F7D8083E7E9F0E0249121
:1006B000E3E8F0E08491882399F090E0880F991F97
:1006C000FC01E859FF4FA591B491FC01EE58FF4F92
:1006D000859194918FB7F894EC91E22BEC938FBFB6
:1006E000C0E0D0E048E050E065E171E08FE291E0E9
:1006F0000E94CF000E94330281E00E94870068EED2
:1007000073E080E090E00E94010247E050E06EE17B
:1007100071E08FE291E00E94CF000E94330280E0FE
:100720000E94870068E873E180E090E00E94010287
:100730002097C1F20E9439018823A1F20E94000093
:10074000D1CFEFE2F1E01382128288EE93E0A0E0D5
:10075000B0E084839583A683B78384E091E091839E
:10076000808385EC90E09587848784EC90E0978780
:10077000868780EC90E0918B808B81EC90E0938B6E
:10078000828B82EC90E0958B848B86EC90E0978B4B
:10079000868B118E128E138E148E0895EE0FFF1F0E
:0C07A0000590F491E02D0994F894FFCF2F
:1007AC00000000006F01CF00FC00BC012D010B010B
:1007BC001F010D0A005052454E4449444F00415010
:0607CC00414741444F00CB
:00000001FF
